:100000003701008013040000EF00C03767000000D4
:10001000130101FE232E8100130401022326A4FEF6
:100020008327C4FE13D7F7018327C4FE93D7670045
:100030003347F7008327C4FE93D747003347F700C1
:100040008327C4FE93D727003347F7008327C4FED6
:1000500093D717003347F7008327C4FEB347F70051
:100060001397F7018327C4FE93D71700B367F700F0
:100070002326F4FE8327C4FE138507000324C10151
:100080001301010267800000130101FD2326110204
:100090002324810213040103232EA4FC232CB4FC8B
:1000A000B7573412938787672324F4FE232604FE70
:1000B0006F004003032584FEEFF09FF52324A4FE88
:1000C0008327C4FE939727000327C4FDB307F700D7
:1000D000032784FE23A0E7008327C4FE938717002D
:1000E0002326F4FE0327C4FE832784FDE364F7FC84
:1000F000130000008320C1020324810213010103C5
:1001000067800000130101FD23268102130401030F
:10011000232EA4FC232CB4FC232AC4FC832784FDB7
:10012000939727000327C4FDB307F70083A70700B1
:100130002322F4FE832784FD2326F4FE832744FD37
:10014000938717002324F4FE8327C4FE93871700A8
:100150002326F4FE8327C4FE939727000327C4FDBC
:10016000B307F70083A70700032744FE6368F7007F
:100170000327C4FE832744FDE3F8E7FC832784FEBE
:100180009387F7FF2324F4FE832784FE93972700A9
:100190000327C4FDB307F70083A70700032744FE26
:1001A000E36EF7FC0327C4FE832784FE6370F70623
:1001B0008327C4FE939727000327C4FDB307F700E6
:1001C00083A707002320F4FE832784FE939727004C
:1001D0000327C4FD3307F7008327C4FE9397270046
:1001E0008326C4FDB387F6000327070023A0E7009A
:1001F000832784FE939727000327C4FDB307F700E6
:10020000032704FE23A0E7006FF01FF41300000093
:10021000832784FD939727000327C4FDB307F700C6
:1002200083A707002320F4FE832784FE93972700EB
:100230000327C4FD3307F700832784FD9397270026
:100240008326C4FDB387F6000327070023A0E70039
:10025000832784FE939727000327C4FDB307F70085
:10026000032704FE23A0E700832784FE13850700ED
:100270000324C1021301010367800000130101FD83
:10028000232611022324810213040103232EA4FC3C
:10029000232CB4FC232AC4FC032784FD832744FDBC
:1002A0006376F704032644FD832584FD0325C4FDFE
:1002B000EFF05FE5930705002326F4FE8327C4FED5
:1002C0009387F7FF13860700832584FD0325C4FD6C
:1002D000EFF0DFFA8327C4FE93871700032644FD5F
:1002E000938507000325C4FDEFF05FF913000000BC
:1002F0008320C102032481021301010367800000EF
:10030000130101FD2326810213040103232EA4FC03
:10031000232CB4FC232604FE6F0080048327C4FE34
:10032000939727000327C4FDB307F70003A707002F
:100330008327C4FE93871700939727008326C4FD65
:10034000B387F60083A7070063F6E7009307000072
:100350006F0040028327C4FE938717002326F4FE14
:10036000832784FD9387F7FF0327C4FEE368F7FA2A
:1003700093071000138507000324C1021301010332
:1003800067800000130101812326117E2324817ED2
:100390001304017F37F3F9FF130303D63301610020
:1003A000B7E7F9FF93870758130704FF3307F700F0
:1003B000B78701009385076A13050700EFF0DFCCCC
:1003C000B7E7F9FF93870758130704FF3307F700D0
:1003D000B78701001386F76993050000130507002E
:1003E000EFF0DFE9B7E7F9FF93870758130704FF3A
:1003F0003307F700B78701009385076A13050700E5
:10040000EFF01FF09307050093B7170093F7F70F6E
:1004100013850700371306001303032A3301610015
:100420008320C17E0324817E1301017F6780000049
:00000001FF
