:100000003701008013040000EF0080056700000046
:10001000130101FD2326810213040103232EA4FCF6
:10002000232CB4FC232AC4FC2328D4FC0327C4FDBE
:10003000832784FD3307F700832644FD832704FDCF
:10004000B387F600B307F7402326F4FE8327C4FEE8
:10005000138507000324C102130101036780000018
:10006000130101FE232E1100232C81001304010231
:10007000930770012326F4FE9307800F2324F4FED8
:10008000930790012322F4FE9307F0002320F4FE4F
:10009000832604FE032644FE832584FE0325C4FE36
:1000A000EFF01FF793070500938797F1B337F00040
:1000B00093F7F70F138507008320C1010324810103
:0800C00013010102678000003A
:00000001FF
