:1000000013050000B7826B5A9382D2C89303000095
:1000100033D37240B7856B5A9385D5C86312B30E3C
:10002000B7826B5A9382D2C89303400033D3724095
:10003000B7B5A6059385857C6314B30CB7826B5A5C
:100040009382D2C89303000133D37240B765000096
:100050009385B5A66316B30AB7826B5A9382D2C84A
:100060009303000333D37240B76500009385B5A6B0
:100070006318B308B7C2B6A59382827D93030000CC
:1000800033D37240B7C5B6A59385857D631AB30691
:10009000B7C2B6A59382827D9303400033D37240EA
:1000A000B7755BFA9385D5C7631CB304B7C2B6A511
:1000B0009382827D9303000133D37240B7A5FFFF83
:1000C0009385655B631EB302B7C2B6A59382827D3A
:1000D0009303000333D37240B7A5FFFF9385655B9D
:1000E0006310B302B7C2B6A59382827D9303400129
:1000F00033D07240930500006314B0001305100064
:040100006700000094
:00000001FF
