:100000001305000037A4A5051304545AB7645A0A0F
:100010009384A4A533299400930510006310B914A8
:1000200037A4A5A51304545AB7B455AA938454A56C
:1000300033299400930510006312B91237A4A5A5C3
:100040001304545AB7645A5A9384A4A533299400CC
:10005000930510006314B91013040000B7645A5AD2
:100060009384A4A533299400930510006318B90E56
:1000700037A4A5A51304545A93040000332994000F
:1000800093051000631CB90C37645A0A1304A4A525
:10009000B7A4A5059384545A33299400930500000E
:1000A000631EB90A37B455AA130454A5B7A4A5A56D
:1000B0009384545A33299400930500006310B90ABD
:1000C00037645A5A1304A4A5B7A4A5A59384545A17
:1000D00033299400930500006312B90837645A5A13
:1000E0001304A4A593040000332994009305000091
:1000F0006316B90613040000B7A4A5A59384545A47
:100100003329940093050000631AB90437645A5ADE
:100110001304A4A5B7645A5A9384A4A53329940060
:1001200093050000631CB90237A4A5A51304545A13
:10013000B7A4A5A59384545A3329940093050000CD
:10014000631EB900130400009304000033299400D7
:10015000930500006314B900130510006700000048
:00000001FF
