:100000001305000037A4A5051304545AB7645A0A0F
:100010009384A4A563F68400130500006700000024
:1000200037A4A5A51304545AB7B455AA938454A56C
:1000300063F68400130500006700000037645A5A15
:100040001304A4A5B7A4A5A59384545A63F6840009
:10005000130500006700000013040000B7645A5A3B
:100060009384A4A563F684001305000067000000D4
:1000700013040000B7A4A5A59384545A63F6840022
:10008000130500006700000037645A5A1304A4A542
:10009000B7645A5A9384A4A563F68400130500003C
:1000A0006700000037A4A5A51304545AB7A4A5A55A
:1000B0009384545A63F6840013050000670000001F
:1000C000130400009304000063F68400130500008D
:1000D0006700000037645A0A1304A4A5B7A4A50555
:1000E0009384545A63F484006F00C0001305000029
:1000F0006700000037B455AA130454A5B7A4A5A5FA
:100100009384545A63F484006F00C0001305000008
:100110006700000037A4A5A51304545AB7645A5ABF
:100120009384A4A563F484006F00C000130500004D
:100130006700000037645A5A1304A4A59304000012
:1001400063F484006F00C000130500006700000026
:1001500037A4A5A51304545A9304000063F4840043
:100160006F00C00013050000670000006F008000F2
:100170006F00000237A4A5051304545AB7645A0A45
:100180009384A4A5E3F684FE130500006700000035
:100190006F0080006F00000237A4A5A51304545A15
:1001A000B7B455AA938454A5E3F684FE1305000062
:1001B000670000006F0080006F00000237645A5A29
:1001C0001304A4A5B7A4A5A59384545AE3F684FE0A
:1001D00013050000670000006F0080006F00C00181
:1001E00013040000B7645A5A9384A4A5E3F884FE6C
:1001F00013050000670000006F0080006F00C00161
:1002000013040000B7A4A5A59384545AE3F884FE10
:1002100013050000670000006F0080006F000002FF
:1002200037645A5A1304A4A5B7645A5A9384A4A5F0
:10023000E3F684FE13050000670000006F008000F5
:100240006F00000237A4A5A51304545AB7A4A5A5AE
:100250009384545AE3F684FE1305000067000000FF
:100260006F0080006F008001130400009304000001
:10027000E3FA84FE13050000670000006F00C00071
:10028000130500006700000037645A0A1304A4A590
:10029000B7A4A5059384545AE3F484FE6F00C0000C
:1002A000130500006700000037B455AA130454A5D5
:1002B000B7A4A5A59384545AE3F484FE6F00C0004C
:1002C000130500006700000037A4A5A51304545AC5
:1002D000B7645A5A9384A4A5E3F484FE6F00C00067
:1002E000130500006700000037645A5A1304A4A5E0
:1002F00093040000E3F684FE6F00C00013050000C5
:100300006700000037A4A5A51304545A9304000005
:0C031000E3F684FE1305100067000000F7
:00000001FF
