:100000001305000037645A5A1304A4A5B7645A5A5A
:100010009384A4A563069400130500006700000004
:1000200037A9A5A51309595AB7A9A5A59389595A5E
:1000300063063901130500006700000037645A5A4F
:100040001304A4A5B7A4A5A59384545A63049400EB
:100050006F00C000130500006700000037695A5A9E
:100060001309A9A5B7A9A5A59389595A630439010C
:100070006F00C00013050000670000006F008000E3
:100080006F00000237645A5A1304A4A5B7645A5A81
:100090009384A4A5E30694FE130500006700000006
:1000A0006F0080006F00000237A9A5A51309595AF7
:1000B000B7A9A5A59389595AE30639FF130500008E
:1000C000670000006F00C00013050000670000001B
:1000D00037645A5A1304A4A5B7A4A5A59384545A07
:1000E000E30494FE6F00C0001305000067000000E9
:1000F00037645A5A1304A4A5B7A4A5A59384545AE7
:0C010000E30494FE1305100067000000EB
:00000001FF
