:100000001305000037A4A5051304545AB7645A0A0F
:100010009384A4A563D68400130500006700000044
:1000200037A4A5A51304545AB7B455AA938454A56C
:1000300063D68400130500006700000037A4A5A55F
:100040001304545AB7645A5A9384A4A563D68400FF
:10005000130500006700000013040000B7645A5A3B
:100060009384A4A563D684001305000067000000F4
:1000700037A4A5A51304545A9304000063D6840042
:10008000130500006700000037645A5A1304A4A542
:10009000B7645A5A9384A4A563D68400130500005C
:1000A0006700000037A4A5A51304545AB7A4A5A55A
:1000B0009384545A63D6840013050000670000003F
:1000C000130400009304000063D6840013050000AD
:1000D0006700000037645A0A1304A4A5B7A4A50555
:1000E0009384545A63D484006F00C0001305000049
:1000F0006700000037B455AA130454A5B7A4A5A5FA
:100100009384545A63D484006F00C0001305000028
:100110006700000037645A5A1304A4A5B7A4A5A524
:100120009384545A63D484006F00C0001305000008
:100130006700000037645A5A1304A4A59304000012
:1001400063D484006F00C000130500006700000046
:1001500013040000B7A4A5A59384545A63D4840063
:100160006F00C00013050000670000006F008000F2
:100170006F00000237A4A5051304545AB7645A0A45
:100180009384A4A5E3D684FE130500006700000055
:100190006F0080006F00000237A4A5A51304545A15
:1001A000B7B455AA938454A5E3D684FE1305000082
:1001B000670000006F0080006F00000237A4A5A553
:1001C0001304545AB7645A5A9384A4A5E3D684FE00
:1001D00013050000670000006F0080006F00C00181
:1001E00013040000B7645A5A9384A4A5E3D884FE8C
:1001F00013050000670000006F0080006F00C00161
:1002000037A4A5A51304545A93040000E3D884FE30
:1002100013050000670000006F0080006F000002FF
:1002200037645A5A1304A4A5B7645A5A9384A4A5F0
:10023000E3D684FE13050000670000006F00800015
:100240006F00000237A4A5A51304545AB7A4A5A5AE
:100250009384545AE3D684FE13050000670000001F
:100260006F0080006F008001130400009304000001
:10027000E3DA84FE13050000670000006F00C00091
:10028000130500006700000037645A0A1304A4A590
:10029000B7A4A5059384545AE3D484FE6F00C0002C
:1002A000130500006700000037B455AA130454A5D5
:1002B000B7A4A5A59384545AE3D484FE6F00C0006C
:1002C000130500006700000037645A5A1304A4A500
:1002D000B7A4A5A59384545AE3D484FE6F00C0004C
:1002E000130500006700000037645A5A1304A4A5E0
:1002F00093040000E3D684FE6F00C00013050000E5
:100300006700000013040000B7A4A5A59384545A05
:0C031000E3D684FE130510006700000017
:00000001FF
