:1000000013050000B7625A5A9382A2A5B3F3020007
:10001000930500006390B30AB7A2A5A59382525A34
:10002000B3F30200930500006396B30837635A5A8E
:100030001303A3A5B373600093050000639CB3068C
:1000400037A3A5A51303535AB373600093050000AB
:100050006392B306B7625A5A9382A2A537F30F0F81
:100060001303030FB3F36200B7550A0A938505051E
:100070006392B304B7A2A5A59382525A37F30F0F28
:100080001303030FB3F36200B7A505059385050AB3
:100090006392B302B7625A5A9382A2A537F30F0F45
:1000A0001303030F33F06200930500006314B000E4
:0800B0001305100067000000B9
:00000001FF
