:1000000013050000B7826B5A9382D2C89303000095
:1000100033937200B7856B5A9385D5C8631AB30CB6
:10002000B7826B5A9382D2C8930340003393720015
:10003000B7D5B7A69385058D631CB30AB7826B5AF3
:100040009382D2C89303000133937200B7058D7C6D
:100050006310B30AB7826B5A9382D2C8930300032A
:1000600033937200B7058D7C6314B308B7C2B6A58D
:100070009382827D9303000033937200B7C5B6A5C7
:100080009385857D6316B306B7C2B6A59382827D3C
:100090009303400033937200B7856C5B938505D85A
:1000A0006318B304B7C2B6A59382827D930300019F
:1000B00033937200B705D8C7631CB302B7C2B6A5A5
:1000C0009382827D9303000333937200B705D8C7F0
:1000D0006310B302B7C2B6A59382827D9303400139
:1000E00033907200930500006314B00013051000F4
:0400F00067000000A5
:00000001FF
