:1000000013050000970201009382420003D302000F
:10001000B7450000938585936318B31097020100DC
:100020009382C2FE03D32200B74500009385A5B397
:10003000631CB30E97020100938242FD03D3E2FFDB
:10004000B7350000938565736310B30E9702010006
:100050009382A2FB03D30200B7350000938565733A
:100060006314B30C97020100938212FA03D3320097
:10007000B7450000938585936318B30A9702010082
:10008000938292F803D3D2FFB735000093852533CE
:10009000631CB30897020100938242F803D3020065
:1000A000B70501009385859F6310B308970201008F
:1000B0009382C2F603D32200B70501009385A5BF42
:1000C0006314B30697020100938242F503D3E2FF63
:1000D000B7F500009385657F6318B30497020100AC
:1000E0009382A2F303D30200B7F500009385657FE6
:1000F000631CB30297020100938212F203D35200F1
:10010000B70501009385A5BF6310B30297020100F4
:10011000938292F003D3B2FFB7F500009385051FD9
:0C0120006314B30013051000670000001A
:020000021000EC
:10000000303132333435363738393A3B3C3D3E3F78
:10001000F0F1F2F3F4F5F6F7F8F9FAFBFCFDFEFF68
:00000001FF
