:1000000013050000B7625A5A9382A2A533830200F7
:10001000B7655A5A9385A5A56310B30EB7625A5AAD
:100020009382A2A513030001B3836200B7655A5AF5
:100030009385A5A66392B30CB7625A5A9382A2A580
:10004000130300FFB3836200B7655A5A9385A5A4D2
:100050006394B30AB70200809382F2FF1303000196
:10006000B3836200B70500809385F5006396B308FB
:10007000B7A2A5A59382525AB3830200B7A5A5A53E
:100080009385555A639AB306B7A2A5A59382525A8F
:1000900013030001B3836200B7A5A5A59385555B43
:1000A000639CB304B7A2A5A59382525A130300FF21
:1000B000B3836200B7A5A5A593855559639EB30286
:1000C000B70200809382F200130300FFB383620043
:1000D000B70500809385F5FF6390B302B7625A5A63
:1000E0009382A2A5130300013380620093050000F0
:0C00F0006314B00013051000670000004E
:00000001FF
