:1000000013050000B7625A5A9382A2A5B3C3020037
:10001000B7655A5A9385A5A56396B30AB7A2A5A555
:100020009382525AB3C30200B7A5A5A59385555A2A
:10003000639AB30837635A5A1303A3A5B343600006
:10004000B7655A5A9385A5A5639EB30637A3A5A5A0
:100050001303535AB3436000B7A5A5A59385555A1A
:100060006392B306B7625A5A9382A2A537F30F0F71
:100070001303030FB3C36200B7B555559385A5AA03
:100080006392B304B7A2A5A59382525A37F30F0F18
:100090001303030FB3C36200B755AAAA938555553E
:1000A0006392B302B7625A5A9382A2A537F30F0F35
:1000B0001303030F33C06200930500006314B00004
:0800C0001305100067000000A9
:00000001FF
