:1000000013050000B71209099382929037635A5A78
:100010001303A3A5739322F1B7150909938595904E
:10002000639EB206B7655A5A9385A5A56318B306B1
:1000300073A322F1B7150909938595906390B206D1
:10004000B7655A5A9385A5A5631AB30473B322F111
:10005000B7150909938595906392B204B7655A5A0A
:100060009385A5A5631CB30273D324F1B7655A5ACF
:100070009385A5A56314B30273E324F1B7655A5AB7
:100080009385A5A5631CB30073F324F1B7655A5A91
:100090009385A5A56314B300130510006700000045
:00000001FF
