:1000000013050000B7625A5A9382A2A513C30200D7
:10001000B7655A5A9385A5A5631AB308B7A2A5A5D3
:100020009382525A13C30200B7A5A5A59385555ACA
:10003000631EB306B7625A5A9382A2A513C3F20095
:10004000B7655A5A938555A56312B306B7A2A5A5FD
:100050009382525A13C3F200B7A5A5A59385A55A5A
:100060006316B304B7625A5A9382A2A513C3F2F07F
:10007000B7A5A5A593855555631AB302B7A2A5A543
:100080009382525A13C3F2F0B7655A5A9385A5AAC0
:10009000631EB300B7625A5A9382A2A513C0F2003E
:1000A000930500006314B000130510006700000002
:00000001FF
