:1000000013050000B7826B5A9382D2C81393020083
:10001000B7856B5A9385D5C86316B308B7826B5AF8
:100020009382D2C813934200B7D5B7A69385058DA6
:10003000631AB306B7826B5A9382D2C81393020134
:10004000B7058D7C6310B306B7C2B6A59382827DD7
:1000500013930200B7C5B6A59385857D6314B304D9
:10006000B7C2B6A59382827D13934200B7856C5BBD
:10007000938505D86318B302B7C2B6A59382827D73
:1000800013930201B705D8C7631EB300B7C2B6A564
:100090009382827D13904201930500006314B000A7
:0800A0001305100067000000C9
:00000001FF
