:100000001305000037A4A5051304545AB7645A0A0F
:100010009384A4A5636694001305000067000000A4
:1000200037A4A5A51304545AB7B455AA938454A56C
:1000300063669400130500006700000037645A5A95
:100040001304A4A5B7A4A5A59384545A6366940089
:10005000130500006700000013040000B7645A5A3B
:100060009384A4A563669400130500006700000054
:1000700013040000B7A4A5A59384545A63669400A2
:10008000130500006700000037645A0A1304A4A592
:10009000B7A4A5059384545A636494006F00C0000C
:1000A000130500006700000037B455AA130454A5D7
:1000B000B7A4A5A59384545A636494006F00C0004C
:1000C000130500006700000037A4A5A51304545AC7
:1000D000B7645A5A9384A4A5636494006F00C00067
:1000E000130500006700000037645A5A1304A4A5E2
:1000F00093040000636494006F00C00013050000C7
:100100006700000037A4A5A51304545A9304000007
:10011000636494006F00C0001305000067000000D6
:1001200037645A5A1304A4A5B7645A5A9384A4A5F1
:10013000636494006F00C0001305000067000000B6
:1001400037A4A5A51304545AB7A4A5A59384545A5B
:10015000636494006F00C000130500006700000096
:100160001304000093040000636494006F00C00057
:1001700013050000670000006F0080006F000002A0
:1001800037A4A5051304545AB7645A0A9384A4A546
:10019000E36694FE13050000670000006F00800016
:1001A0006F00000237A4A5A51304545AB7B455AA8A
:1001B000938454A5E36694FE1305000067000000D5
:1001C0006F0080006F00000237645A5A1304A4A520
:1001D000B7A4A5A59384545AE36694FE13050000C2
:1001E000670000006F0080006F00C0011304000072
:1001F000B7645A5A9384A4A5E36894FE13050000DB
:10020000670000006F0080006F00C0011304000051
:10021000B7A4A5A59384545AE36894FE130500007F
:10022000670000006F00C0001305000067000000B9
:1002300037645A0A1304A4A5B7A4A5059384545A95
:10024000E36494FE6F00C000130500006700000027
:1002500037B455AA130454A5B7A4A5A59384545A3A
:10026000E36494FE6F00C000130500006700000007
:1002700037A4A5A51304545AB7645A5A9384A4A565
:10028000E36494FE6F00C0001305000067000000E7
:1002900037645A5A1304A4A593040000E36694FE3D
:1002A0006F00C000130500006700000037A4A5A57B
:1002B0001304545A93040000E36694FE6F00C000D8
:1002C000130500006700000037645A5A1304A4A500
:1002D000B7645A5A9384A4A5E36494FE6F00C000E7
:1002E000130500006700000037A4A5A51304545AA5
:1002F000B7A4A5A59384545AE36494FE6F00C0008C
:1003000013050000670000001304000093040000C0
:0C031000E36894FE130510006700000075
:00000001FF
