:1000000013050000B7826B5A9382D2C813D3024003
:10001000B7856B5A9385D5C8631AB308B7826B5AF4
:100020009382D2C813D34240B7B5A6059385857C89
:10003000631EB306B7826B5A9382D2C813D30241B0
:10004000B76500009385B5A66312B306B7C2B6A51F
:100050009382827D13D30240B7C5B6A59385857D73
:100060006316B304B7C2B6A59382827D13D3424010
:10007000B7755BFA9385D5C7631AB302B7C2B6A545
:100080009382827D13D30241B7A5FFFF9385655B01
:10009000631EB300B7C2B6A59382827D13D04241DE
:1000A000930500006314B000130510006700000002
:00000001FF
