:100000001305000093030008970201009382020089
:1000100023807200170E0100130ECEFE03238E0004
:10002000B7453A3B93850598631EB30A97020100D2
:100030009382C2FE23817200170E0100130E8EFD03
:1000400003238E00B745803B93858593631CB308DB
:1000500097020100938282FD238F72FE170E01002A
:10006000130E4EFC03234E00B7358037938545535E
:10007000631AB30697020100938232FC2380720058
:10008000170E0100130E0EFB03234E00B73536800A
:10009000938545536318B304970201009382F2FAE3
:1000A00023817200170E0100130ECEF903238E0078
:1000B000B7853A3B938585036316B3029702010027
:1000C0009382B2F9238F72FE170E0100130E8EF881
:1000D00003234E00B7853637938545036314B30079
:0800E000130510006700000089
:020000021000EC
:10000000303132333435363738393A3B3C3D3E3F78
:10001000303132333435363738393A3B3C3D3E3F68
:10002000303132333435363738393A3B3C3D3E3F58
:10003000303132333435363738393A3B3C3D3E3F48
:10004000303132333435363738393A3B3C3D3E3F38
:10005000303132333435363738393A3B3C3D3E3F28
:00000001FF
