:100000001305000037A4A5051304545AB7645A0A0F
:100010009384A4A5634694001305000067000000C4
:1000200037A4A5A51304545AB7B455AA938454A56C
:1000300063469400130500006700000037A4A5A5DF
:100040001304545AB7645A5A9384A4A5634694007F
:10005000130500006700000013040000B7645A5A3B
:100060009384A4A563469400130500006700000074
:1000700037A4A5A51304545A9304000063469400C2
:10008000130500006700000037645A0A1304A4A592
:10009000B7A4A5059384545A634494006F00C0002C
:1000A000130500006700000037B455AA130454A5D7
:1000B000B7A4A5A59384545A634494006F00C0006C
:1000C000130500006700000037645A5A1304A4A502
:1000D000B7A4A5A59384545A634494006F00C0004C
:1000E000130500006700000037645A5A1304A4A5E2
:1000F00093040000634494006F00C00013050000E7
:100100006700000013040000B7A4A5A59384545A07
:10011000634494006F00C0001305000067000000F6
:1001200037645A5A1304A4A5B7645A5A9384A4A5F1
:10013000634494006F00C0001305000067000000D6
:1001400037A4A5A51304545AB7A4A5A59384545A5B
:10015000634494006F00C0001305000067000000B6
:100160001304000093040000634494006F00C00077
:1001700013050000670000006F0080006F000002A0
:1001800037A4A5051304545AB7645A0A9384A4A546
:10019000E34694FE13050000670000006F00800036
:1001A0006F00000237A4A5A51304545AB7B455AA8A
:1001B000938454A5E34694FE1305000067000000F5
:1001C0006F0080006F00000237A4A5A51304545AE5
:1001D000B7645A5A9384A4A5E34694FE130500001D
:1001E000670000006F0080006F00C0011304000072
:1001F000B7645A5A9384A4A5E34894FE13050000FB
:10020000670000006F0080006F00C00137A4A5A543
:100210001304545A93040000E34894FE13050000AD
:10022000670000006F00C0001305000067000000B9
:1002300037645A0A1304A4A5B7A4A5059384545A95
:10024000E34494FE6F00C000130500006700000047
:1002500037B455AA130454A5B7A4A5A59384545A3A
:10026000E34494FE6F00C000130500006700000027
:1002700037645A5A1304A4A5B7A4A5A59384545A65
:10028000E34494FE6F00C000130500006700000007
:1002900037645A5A1304A4A593040000E34694FE5D
:1002A0006F00C00013050000670000001304000089
:1002B000B7A4A5A59384545AE34694FE6F00C000EA
:1002C000130500006700000037645A5A1304A4A500
:1002D000B7645A5A9384A4A5E34494FE6F00C00007
:1002E000130500006700000037A4A5A51304545AA5
:1002F000B7A4A5A59384545AE34494FE6F00C000AC
:1003000013050000670000001304000093040000C0
:0C031000E34894FE130510006700000095
:00000001FF
