:1000000013050000B7625A5A9382A2A51383020017
:10001000B7655A5A9385A5A56312B30CB7625A5AAD
:100020009382A2A513830201B7655A5A9385A5A6A8
:100030006316B30AB7625A5A9382A2A5138302FFCA
:10004000B7655A5A9385A5A4631AB308B70200800E
:100050009382F2FF13830201B70500809385F500B8
:10006000631EB306B7A2A5A59382525A138302005A
:10007000B7A5A5A59385555A6312B306B7A2A5A542
:100080009382525A13830201B7A5A5A59385555BA8
:100090006316B304B7A2A5A59382525A138302FF35
:1000A000B7A5A5A593855559631AB302B702008079
:1000B0009382F200138302FFB70500809385F5FF5A
:1000C000631EB300B7625A5A9382A2A5138002013D
:1000D000930500006314B0001305100067000000D2
:00000001FF
